:060000000A128A110E280D
:10000800FE00030EF2000A08F3007F08F4000A1647
:100018008A11162C0A128A111128F501F601F70126
:10002800F80183135930840070300A168A1163234B
:100038000A128A11A0308400BA300A168A11632382
:100048000A128A1183010A168A11C32E482D8312B7
:100058000313061486100611061E332834289A281E
:100068006C08A1006B08A0003130A2000A168A11A2
:10007800AD230A128A11073083120313C7007C309C
:10008800C600C60B4528C70B45280000831203137A
:100098006C08A1006B08A0000A128A11EA270A124C
:1000A8008A1183120313EF00073083120313C7006A
:1000B8007C30C600C60B5E28C70B5E280000831282
:1000C80003136F080A128A1506200A128A110730CC
:1000D80083120313C7007C30C600C60B7128C70BF8
:1000E80071280000831203136B08C6004607593EA7
:1000F8008400013083138000840A003080000730B8
:1001080083120313C7007C30C600C60B8928C70BAF
:1001180089280000013083120313EB070318EC0A47
:100128000030EC07061A99289A289628861E9D28DA
:100138009E2804296C08A1006B08A0003430A20096
:100148000A168A11AD230A128A1107308312031383
:10015800C7007C30C600C60BAF28C70BAF2800000D
:10016800831203136C08A1006B08A0000A128A11FD
:10017800EA270A128A1183120313EF000730831249
:100188000313C7007C30C600C60BC828C70BC82895
:100198000000831203136F080A128A1506200A1238
:1001A8008A11073083120313C7007C30C600C60BC0
:1001B800DB28C70BDB280000831203136B08C6007B
:1001C8004607593E8400043083138000840A0030B7
:1001D8008000073083120313C7007C30C600C60BAB
:1001E800F328C70BF3280000013083120313EB0731
:1001F8000318EC0A0030EC07861A032904290029A1
:10020800061F072908296E296C08A1006B08A000A1
:100218003730A2000A168A11AD230A128A11073054
:1002280083120313C7007C30C600C60B1929C70BFD
:1002380019290000831203136C08A1006B08A000A1
:100248000A128A11EA270A128A1183120313EF008D
:10025800073083120313C7007C30C600C60B32294F
:10026800C70B32290000831203136F080A128A157C
:1002780006200A128A11073083120313C7007C3044
:10028800C600C60B4529C70B452900008312031376
:100298006B08C6004607593E840007308313800068
:1002A800840A00308000073083120313C7007C30B3
:1002B800C600C60B5D29C70B5D29000001308312FB
:1002C8000313EB070318EC0A0030EC07061B6D2933
:1002D8006E296A29861F71297229C0296C08A10014
:1002E8006B08A0002A30A2000A168A11AD230A1250
:1002F8008A11073083120313C7007C30C600C60B6F
:100308008329C70B83290000831203136C08A100FB
:100318006B08A0000A128A11EA270A128A118312AE
:100328000313EF00073083120313C7007C30C600A5
:10033800C60B9C29C70B9C290000831203136F0866
:100348000A128A1506200A128A110730831203132B
:10035800C7007C30C600C60BAF29C70BAF29000009
:10036800013083120313EB070318EC0A0030EC0783
:10037800861BBF29C029BC29061086140611061E33
:10038800C629C7292D2A6C08A1006B08A0003230A5
:10039800A2000A168A11AD230A128A1107308312A5
:1003A8000313C7007C30C600C60BD829C70BD82951
:1003B8000000831203136C08A1006B08A0000A1246
:1003C8008A11EA270A128A1183120313EF000730F1
:1003D80083120313C7007C30C600C60BF129C70B74
:1003E800F1290000831203136F080A128A150620E8
:1003F8000A128A11073083120313C7007C30C60023
:10040800C60B042AC70B042A0000831203136B08C7
:10041800C6004607593E8400023083138000840AD0
:1004280000308000073083120313C7007C30C600F9
:10043800C60B1C2AC70B1C2A0000013083120313A9
:10044800EB070318EC0A0030EC07061A2C2A2D2AB1
:10045800292A861E302A312A972A6C08A1006B089F
:10046800A0003530A2000A168A11AD230A128A119B
:10047800073083120313C7007C30C600C60B422A1C
:10048800C70B422A0000831203136C08A1006B08F3
:10049800A0000A128A11EA270A128A11831203138A
:1004A800EF00073083120313C7007C30C600C60B69
:1004B8005B2AC70B5B2A0000831203136F080A121A
:1004C8008A1506200A128A11073083120313C700FF
:1004D8007C30C600C60B6E2AC70B6E2A000083123A
:1004E80003136B08C6004607593E84000530831382
:1004F8008000840A00308000073083120313C7008D
:100508007C30C600C60B862AC70B862A000001303D
:1005180083120313EB070318EC0A0030EC07861A62
:10052800962A972A932A061F9A2A9B2A012B6C0837
:10053800A1006B08A0003830A2000A168A11AD236A
:100548000A128A11073083120313C7007C30C600D1
:10055800C60BAC2AC70BAC2A0000831203136C0825
:10056800A1006B08A0000A128A11EA270A128A1150
:1005780083120313EF00073083120313C7007C3084
:10058800C600C60BC52AC70BC52A00008312031371
:100598006F080A128A1506200A128A110730831278
:1005A8000313C7007C30C600C60BD82AC70BD82A4D
:1005B8000000831203136B08C6004607593E8400E7
:1005C800083083138000840A0030800007308312CB
:1005D8000313C7007C30C600C60BF02AC70BF02AED
:1005E8000000013083120313EB070318EC0A0030F4
:1005F800EC07061B002B012BFD2A861F042B052B5D
:10060800692B6C08A1006B08A0003030A2000A1604
:100618008A11AD230A128A11073083120313C70007
:100628007C30C600C60B162BC70B162B0000831296
:1006380003136C08A1006B08A0000A128A11EA27AC
:100648000A128A1183120313EF000730831203136F
:10065800C7007C30C600C60B2F2BC70B2F2B000002
:10066800831203136F080A128A1506200A128A11C8
:10067800073083120313C7007C30C600C60B422B19
:10068800C70B422B0000831203136B08C6004607F2
:10069800593E840083138001840A80010730831245
:1006A8000313C7007C30C600C60B582BC70B582B4A
:1006B8000000013083120313EB070318EC0A003023
:1006C800EC07861B682B692B652B06108610061510
:1006D800061E6F2B702BD62B6C08A1006B08A00090
:1006E8003330A2000A168A11AD230A128A11073084
:1006F80083120313C7007C30C600C60B812BC70BBF
:10070800812B0000831203136C08A1006B08A00062
:100718000A128A11EA270A128A1183120313EF00B8
:10072800073083120313C7007C30C600C60B9A2B10
:10073800C70B9A2B0000831203136F080A128A153D
:1007480006200A128A11073083120313C7007C306F
:10075800C600C60BAD2BC70BAD2B000083120313CD
:100768006B08C6004607593E840003308313800097
:10077800840A00308000073083120313C7007C30DE
:10078800C600C60BC52BC70BC52B00000130831252
:100798000313EB070318EC0A0030EC07061AD52BF5
:1007A800D62BD22B861ED92BDA2B402C6C08A10015
:1007B8006B08A0003630A2000A168A11AD230A126F
:1007C8008A11073083120313C7007C30C600C60B9A
:1007D800EB2BC70BEB2B0000831203136C08A10053
:1007E8006B08A0000A128A11EA270A128A118312DA
:1007F8000313EF00073083120313C7007C30C600D1
:10080800C60B042CC70B042C0000831203136F08BB
:100818000A128A1506200A128A1107308312031356
:10082800C7007C30C600C60B172CC70B172C00005E
:10083800831203136B08C6004607593E840006302E
:1008480083138000840A003080000730831203136A
:10085800C7007C30C600C60B2F2CC70B2F2C0000FE
:10086800013083120313EB070318EC0A0030EC077E
:10087800861A3F2C402C3C2C061F432C442CAA2CB7
:100888006C08A1006B08A0003930A2000A168A1172
:10089800AD230A128A11073083120313C7007C3074
:1008A800C600C60B552CC70B552C0000831203132A
:1008B8006C08A1006B08A0000A128A11EA270A1224
:1008C8008A1183120313EF00073083120313C70042
:1008D8007C30C600C60B6E2CC70B6E2C0000831232
:1008E80003136F080A128A1506200A128A110730A4
:1008F80083120313C7007C30C600C60B812CC70BBC
:10090800812C0000831203136B08C6004607593E6A
:100918008400093083138000840A00308000073087
:1009280083120313C7007C30C600C60B992CC70B73
:10093800992C0000013083120313EB070318EC0A0B
:100948000030EC07061BA92CAA2CA62C861FAD2C60
:10095800AE2C482D162D5908A6005A08A7000030BD
:10096800A71BFF30A800A90001300A128A1512201F
:100978000A128A1183120313290883160313A70086
:1009880083120313280883160313A6008312031384
:10099800270883160313A50083120313260883165A
:1009A8000313A400232D0A30A2000030A3005A0824
:1009B800A1005908A0000A168A11EF230A128A1109
:1009C800831203135B082007C6005C0803185C0A3F
:1009D8002107C7004608A6004708A7000030A71B44
:1009E800FF30A800A90001300A128A1512200A1245
:1009F8008A1183120313290883160313A70083128D
:100A08000313280883160313A60083120313270869
:100A180083160313A50083120313260883160313F2
:100A2800A400232D6C08003A03191B2D232D6B08F5
:100A3800013A0319AF2C033A0319D72C232D02309E
:100A48008312A20033300A168A118E230A128A11E1
:100A5800C0300A168A116B230A128A1107308312D2
:100A68000313C7007C30C600C60B382DC70B382DC2
:100A780000000C3083120313A2000F300A168A11EB
:100A88008E230A128A11BC2D831203136C08803A34
:100A9800FF0080307F02031D532D03306B02031CBF
:100AA800562D572D2B28643083120313A2000030D3
:100AB800A3005A08A1005908A0000A168A11EF23BA
:100AC8000A128A11831203132008C6002108C700DE
:100AD8000A30A2000030A3005C08A1005B08A00057
:100AE8000A168A11EF230A128A11831203132008A7
:100AF8004607C80021080318210A4707C9005D08EE
:100B08004807CA005E0803185E0A4907CB004A086E
:100B1800A6004B08A7000030A71BFF30A800A900BB
:100B280001300A128A1512200A128A11831203133D
:100B3800290883160313A7008312031328088316B2
:100B48000313A60083120313270883160313A500B3
:100B580083120313260883160313A400023083129A
:100B68000313A20033300A168A118E230A128A113F
:100B780083160313270883120313BD008316031378
:100B8800260883120313BC00831603132508831257
:100B98000313BB0083160313240883120313BA003C
:100BA8000A168A11F9240A128A11831203133B08C0
:100BB800C5003A08C40008008312031327088039C7
:100BC800B1002708A8002807B800A61FEC2DED2DB6
:100BD800EE2D381438080319F22DF32D032E380A98
:100BE800031DF72DF82D002E0030A7000030A600B9
:100BF8000030A5000030A400A617A7010B2E003076
:100C0800A7000030A6000030A5000030A40023088B
:100C18008039FF007F08B1062308A8002807B9001B
:100C2800A21F172E182E192E3914390803191D2E34
:100C38001E2E2E2E390A031D222E232E2B2E003077
:100C4800A3000030A2000030A1000030A000A217CD
:100C5800A301362E0030A3000030A2000030A1000E
:100C68000030A0002308220421042004031D3D2E87
:100C78003E2E572E0030A7000030A6000030A500F9
:100C88000030A4008030A6047F30A7043108FF009C
:100C98007F08A7042708A3002608A2002508A100AA
:100CA8002408A000AE2F3808031D5B2E5C2E652E8D
:100CB8000030A3000030A2000030A1000030A000E6
:100CC800AE2F3808A800A9012908AB003908280266
:100CD800AA00031CAB032A087F3EB2002B080318A6
:100CE800013E003EB3002708B0002608AF002508E3
:100CF800AE002408AD000030A7000030A600003088
:100D0800A5000030A4000030B7000030B600003065
:100D1800B5000030B400B901DB2E39080319952E4F
:100D2800962EB62E0130A8000310AD0DAE0DAF0DF6
:100D3800B00DA80B982E0130A8000310A40DA50D26
:100D4800A60DA70DA80BA12EB71FAB2EAC2EAD2E4E
:100D580024140130A8000310B40DB50DB60DB70D5D
:100D6800A80BAF2E23083002031DC42E22082F0221
:100D7800031DC42E21082E02031DC42E20082D0297
:100D8800031CC72EC82ED72E37172008AD022108FE
:100D9800031C210FAE022208031C220FAF022308F6
:100DA800031C230FB0020130FF007F08B9071A3077
:100DB8003902031CE02EE12E912E30082F042E0458
:100DC8002D040319E82EE92E082F3414082F0130BA
:100DD800A8000310A40DA50DA60DA70DA80BED2EB8
:100DE800B71FF72EF82EF92E24140130A80003108F
:100DF800B40DB50DB60DB70DA80BFB2EFF30B2071D
:100E08000318B30AFF30B307A61F0B2F0C2FEB2EC6
:100E1800B901B71F102F112F2D2FFF303405A8004F
:100E2800FF303505A900FF303605AA007F303705A9
:100E3800AB002B082A04290428040319242F252F82
:100E4800282FB901B90A2D2F241C2B2F2C2F2D2F19
:100E5800252F39080319312F322F632F0130A407AA
:100E6800003003180130A507003003180130A60729
:100E7800003003180130A707271C432F442F632F86
:100E88002408A8002508A9002608AA002708AB00FE
:100E98000130AC002B0DAB0CAA0CA90CA80CAC0BA8
:100EA8004E2F2B08A7002A08A6002908A500280805
:100EB800A4000130B2070318B30A0030B30733089F
:100EC800803AFF0080307F02031D6C2FFF30320212
:100ED800031C6F2F702F7E2FFF3083120313B20075
:100EE8000030B3000030A7000030A6000030A50095
:100EF8000030A400831203133308803AFF008030C7
:100F08007F02031D892F0130320203188C2F8D2F89
:100F18009A2F83120313B201B3010030A7000030E7
:100F2800A6000030A5000030A400B101831203130D
:100F38003208B800381CA12FA22FA42FA617A82F5B
:100F48007F30FF007F08A6053808A8000310280C8A
:100F5800A7004A2E080007308A000408840A82077E
:100F68000034413443345434553441344C342034FF
:100F7800543445344D3450343A34203400344134F8
:100F880043345434553441344C3420345434453487
:100F98004D3450343A340034543445344D3450349C
:100FA80020345234453446343A34003420344334FF
:100FB80020342034203420342034203400342034A9
:100FC8004334203400342034433400348312031370
:100FD8002008831203178D00831603178C130C1433
:100FE800831203170C0883120313A20022080800B7
:080FF800831203130914080021
:10100400831203130910080083120313A1000717A6
:10101400210888000A168A1177230A128A15080003
:1010240083120313AE002E08031919281A282E2838
:10103400A91F1D281E282E282609B0002709B10043
:101044002809B2002909B300B00A0319B10A031927
:10105400B20A0319B30A36282908B3002808B200D3
:101064002708B1002608B00029082804270426040C
:10107400031D3D283E2847280030A9000030A80061
:101084000030A7000030A600CB289630AF005728C8
:101094000130FF007F08AF0701300310B30CB20C1E
:1010A400B10CB00CFF3E031D4F28FE303305031D69
:1010B4005C285D284A2879280130FF007F08AF07A3
:1010C4000130B007003003180130B10700300318B5
:1010D4000130B207003003180130B30701300310A8
:1010E400B30CB20CB10CB00CFF3E031D7128FF30E1
:1010F4003305031D7E287F285E288B280130AF022C
:101104000130AA000310B00DB10DB20DB30DAA0B3E
:101114008428B21B8E288F28952802302F020318AA
:101124009428952880282F1898289928A128FF30DA
:10113400B005FF30B1057F30B205FF30B3050310B1
:10114400AF0C2F08AA00AB01AC01AD01183003109D
:10115400AA0DAB0DAC0DAD0DFF3E031DA9282A0849
:10116400B0042B08B1042C08B2042D08B3042E08D3
:101174000319BD28BE28C328A91FC128C228C32813
:10118400B3173308A9003208A8003108A7003008B3
:10119400A6000800831203131F0804389F003B3085
:1011A400B700A030B6002830B5000A30B400630898
:1011B400A6006408A7000030A71BFF30A800A90000
:1011C40001300A128A1512200A128A158312031397
:1011D4002908BB002808BA002708B9002608B80067
:1011E4000A128A15BB240A128A15831203133708BC
:1011F40083160313AB0083120313360883160313F9
:10120400AA0083120313350883160313A90083125B
:101214000313340883160313A80042308312031304
:10122400B700C830B6000030B5000030B4008316F3
:1012340003132B0883120313BB00831603132A081A
:1012440083120313BA0083160313290883120313AA
:10125400B90083160313280883120313B8000A1273
:101264008A15BB240A128A15831203133708E20075
:101274003608E1003508E0003408DF00C0300A1603
:101284008A116B230A128A150C3083120313A200ED
:1012940001300A168A118E230A128A158312031347
:1012A4006208A7006108A6006008A5005F08A40002
:1012B4004230A300C830A2000030A1000030A000DA
:1012C4000A128A11E0250A128A15831203132308CD
:1012D400BD002208BC002108BB002008BA000A1681
:1012E4008A11F9240A128A15831203133B08EA00AF
:1012F4003A08E9000A30C4000030C5006208BD00A5
:101304006108BC006008BB005F08BA000A168A11B5
:10131400F9240A128A15831203133B08C7003A08FA
:10132400C6000A168A119E240A128A158312031310
:101334004508E8004408E7006208A7006108A60021
:101344006008A5005F08A4004130A3002030A2007B
:101354000030A1000030A0000A128A11E0250A1210
:101364008A15831203132308BD002208BC00210838
:10137400BB002008BA000A168A11F9240A128A1539
:10138400831203133B0883160313B700831203135A
:101394003A0883160313B6000A3083120313C400F9
:1013A4000030C50083160313370883120313C700E4
:1013B40083160313360883120313C6000A168A1110
:1013C4009E240A128A15831203134508E600440872
:1013D400E5000A30C4000030C5006A08C700690887
:1013E400C6000A168A119E240A128A158312031350
:1013F400450883160313B5008312031344088316A8
:101404000313B4008312031369036A04031D0B2A34
:101414000C2A3D2A31300A128A1506200A128A152E
:10142400831203136508303E0A128A1506200A1235
:101434008A15831203136708303E0A128A150620A0
:101444000A128A15033083120313A2002F300A16DE
:101454008A118E230A128A15023083120313D400D0
:101464004530D300A930D200D20B362AD30B362A0A
:10147400D40B362A582A6508303E0A128A150620EB
:101484000A128A15831203136708303E0A128A155A
:1014940006200A128A15083083120313A20026308C
:1014A4000A168A118E230A128A152E2A831203130E
:1014B4006208D1006108D0006008CF005F08CE0048
:1014C40008008312031323088039B0002308A800FE
:1014D4002807B200A21F6F2A702A712A3214320818
:1014E4000319752A762A862A320A031D7A2A7B2A48
:1014F400832A0030A3000030A2000030A100003095
:10150400A000A217A3018E2A0030A3000030A2007D
:101514000030A1000030A00027088039B100310854
:1015240030060319962A972A982A30172708A80004
:101534002807B100A61F9F2AA02AA12A3114310826
:101544000319A52AA62AB62A310A031DAA2AAB2AF8
:10155400B32A0030A7000030A6000030A5000030F8
:10156400A400A617A701BE2A0030A7000030A600D9
:101574000030A5000030A400320831020318C32A49
:10158400C42AEA2A301FC72AC82ACC2A8030FF007E
:101594007F08B0063208B3003108B2003308B10046
:1015A4002008B3002408A0003308A4002108B300D5
:1015B4002508A1003308A5002208B3002608A200CC
:1015C4003308A6002308B3002708A3003308A700A4
:1015D400B3013108A800A9012908AB003208280288
:1015E400AA00031CAB032B08803AFF0080307F0263
:1015F400031DFE2A1A302A02031C012B022B392B4D
:10160400831203132308220421042004031D0B2B3B
:101614000D2B01300E2B0030B3000030A30000303E
:10162400A2000030A1000030A0003108B200412B1C
:10163400331C1D2B1E2B252B3308A8000310280C4C
:101644000138B300272B0310B30C201C2A2B2B2B9F
:101654002C2BB3170130A800230DA30CA20CA10C52
:10166400A00CA80B2E2B0130FF007F08B2078312B9
:10167400031331083202031C402B412B1A2B301B5D
:10168400442B452B8E2B3208031D492B4A2B532BFD
:101694000030A3000030A2000030A1000030A00000
:1016A400BA2C2408A007250803110318013E0319C6
:1016B4005C2BA107260803110318013E0319632BB1
:1016C400A207270803110318013E03196A2BA30775
:1016D400231C6D2B6E2B422C331C712B722B792BFC
:1016E4003308A8000310280C0138B3007B2B031027
:1016F400B30C201C7E2B7F2B802BB3170130A8004A
:10170400230DA30CA20CA10CA00CA80B822B01305E
:10171400FF007F08B207422C2308803AFF00270805
:10172400803A7F02031DA02B26082202031DA02B52
:1017340025082102031DA02B240820020318A32B33
:10174400A42BFC2BFF30A800FF30A900FF30AA0017
:10175400FF30AB002408AC002508AD002608AE001D
:101764002708AF002008AC022108031C210FBB2B63
:10177400BC2BAD022208031C220FC12BC22BAE02CC
:101784002308031C230FC72BC82BAF022C08A80760
:101794002D0803182D0FCF2BD02BA9072E080318C3
:1017A4002E0FD52BD62BAA072F0803182F0AAB0709
:1017B4002B08A3002A08A2002908A1002808A000D9
:1017C4008030FF007F08B006B309B30A3308031D55
:1017D400EC2BED2B0A2C0130A0070030031801304C
:1017E400A107003003180130A207003003180130AC
:1017F400A3070A2C2408A0022508031C250FA10214
:101804002608031C260FA2022708031C270FA30285
:101814002308220421042004031D112C122C3E2C25
:101824003308031D162C172C3E2C0030A300003067
:10183400A2000030A1000030A000BA2C0130A800A2
:101844000310A00DA10DA20DA30DA80B222CB31FF4
:101854002C2C2D2C2E2C2014331C312C322C352CDA
:101864000314B30D372C0310B30D320803193B2CAA
:101874003C2C3E2C0130B202A21F412C422C202CC5
:10188400B101B31F462C472C552C33087F3903195B
:101894004C2C4D2C502CB101B10A552C201C532C2E
:1018A400542C552C4D2C31080319592C5A2C8E2CA0
:1018B4000130A007003003180130A10700300318DD
:1018C4000130A207003003180130A307231C6B2C3E
:1018D4006C2C8E2C2008A8002108A9002208AA003C
:1018E4002308AB000130AC002B0DAB0CAA0CA90CE7
:1018F400A80CAC0B762C2B08A3002A08A2002908FC
:10190400A1002808A000320A0319892C8A2C8E2CE5
:101914000130FF007F08B207320A0319922C932C7E
:10192400982C3208031D972C982CA62C0030A30069
:101934000030A2000030A1000030A0003208031DD6
:10194400A42CA52CA62CB001321CA92CAA2CAC2C9E
:10195400A217B02C7F30FF007F08A2053208A80030
:101964000310280CA300B01FB82CB92CBA2CA31751
:1019740008008312031337088039C1003708BC00FC
:101984003C07C700B61FC72CC82CC92C47144708EE
:101994000319CD2CCE2CDD2C470A031DD22CD32CBD
:1019A400DB2C0030B7000030B6000030B50000304A
:1019B400B400B617E52C0030B7000030B600003094
:1019C400B5000030B4003B088039FF007F08C10631
:1019D4003B08BC003C07C200BA1FF12CF22CF32CCC
:1019E400421442080319F72CF82C072D420A031D50
:1019F400FC2CFD2C052D0030BB000030BA0000305B
:101A0400B9000030B800BA170F2D0030BB00003009
:101A1400BA000030B9000030B80042080319132D91
:101A2400142D192D4708031D182D192D222D0030B2
:101A3400B7000030B6000030B5000030B400FF2F0E
:101A44003408A0003A080A168A113F240A128A159B
:101A5400831203132108CD002008CC004C08BC00DD
:101A6400BD01BE01BF013F08C6003E08C5003D08D8
:101A7400C4003C08C3004D08BC00BD01BE01BF0149
:101A84003F08CB003E08CA003D08C9003C08C80016
:101A94003508A00039080A168A113F240A128A154B
:101AA400831203132108CD002008CC004C08BC008D
:101AB400BD01BE01BF013C08C3073D080311031863
:101AC400013E0319662DC4073E0803110318013EA5
:101AD40003196D2DC5073F0803110318013E0319AF
:101AE400742DC6074D08BC00BD01BE01BF013C08F2
:101AF400C8073D0803110318013E0319822DC907C5
:101B04003E0803110318013E0319892DCA073F0833
:101B140003110318013E0319902DCB073608A000CA
:101B240038080A168A113F240A128A1583120313ED
:101B34002108CD002008CC004C08BC00BD01BE012A
:101B4400BF013C08C3073D0803110318013E0319F4
:101B5400AC2DC4073E0803110318013E0319B32D2D
:101B6400C5073F0803110318013E0319BA2DC60720
:101B74004D08BC00BD01BE01BF013C08C8073D08BB
:101B840003110318013E0319C82DC9073E080311A8
:101B94000318013E0319CF2DCA073F080311031888
:101BA400013E0319D62DCB070830BC000310C30D2A
:101BB400C40DC50DC60DBC0BD82D3508A0003808C2
:101BC4000A168A113F240A128A1583120313210864
:101BD400CD002008CC004C08BC004D08BD00BE015F
:101BE400BF013C08C3073D0803110318013E031954
:101BF400FC2DC4073E0803110318013E0319032EEC
:101C0400C5073F0803110318013E03190A2EC6072E
:101C14003408A00039080A168A113F240A128A15CA
:101C2400831203132108CD002008CC004C08BC000B
:101C34004D08BD00BE01BF013C08C3073D080311A8
:101C44000318013E0319272EC4073E080311031885
:101C5400013E03192E2EC5073F0803110318013E48
:101C64000319352EC6070830BC000310C30DC40D7C
:101C7400C50DC60DBC0B372E3408A00038080A1653
:101C84008A113F240A128A15831203132108CD00F6
:101C94002008CC004C08BC004D08BD00BE01BF01AB
:101CA4003C08C3073D0803110318013E03195B2ECA
:101CB400C4073E0803110318013E0319622EC50729
:101CC4003F0803110318013E0319692EC60735089E
:101CD400A0003A080A168A113F240A128A158312B0
:101CE40003132108CD002008CC004C08BC004D088B
:101CF400BD00BE01BF013C08C8073D08031103181D
:101D0400013E0319862EC9073E0803110318013E3C
:101D140003198D2ECA073F0803110318013E031946
:101D2400942ECB073608A00039080A168A113F24DE
:101D34000A128A15831203132108CD002008CC004F
:101D44004C08BC004D08BD00BE01BF013C08C807DB
:101D54003D0803110318013E0319B12EC9073E08BB
:101D640003110318013E0319B82ECA073F080311D3
:101D74000318013E0319BF2ECB073608A0003A080A
:101D84000A168A113F240A128A15831203132108A2
:101D9400CD002008CC004C08BC004D08BD00BE019D
:101DA400BF0108300310BC0DBD0DBE0DBF0DFF3EBD
:101DB400031DD42E3C08C8073D0803110318013E37
:101DC4000319E52EC9073E0803110318013E031940
:101DD400EC2ECA073F0803110318013E0319F32E22
:101DE400CB074308BC004408BD004508BE004608B4
:101DF400BF0018300310BF0CBE0CBD0CBC0CFF3E62
:101E0400031DFC2E3C08C8073D0803110318013EBE
:101E140003190D2FC9073E0803110318013E0319C6
:101E2400142FCA073F0803110318013E03191B2F7F
:101E3400CB070830BC000310C30DC40DC50DC60D7F
:101E4400BC0B1D2F47084207BC00BD01BD0D3C085B
:101E5400823ECC003D080318013EFF3ECD004F2FCB
:101E64000130BC000310C80DC90DCA0DCB0DBC0B4D
:101E7400342FC61F3E2F3F2F402F48140130BC0083
:101E84000310C30DC40DC50DC60DBC0B422FFF308E
:101E9400CC070318CD0AFF30CD07CA1F522F532F8A
:101EA400322FC201C61F572F582F742FFF304305FE
:101EB400BC00FF304405BD00FF304505BE007F3047
:101EC4004605BF003F083E043D043C0403196B2F44
:101ED4006C2F6F2FC201C20A742F481C722F732FEC
:101EE400742F6C2F42080319782F792FAA2F0130F1
:101EF400C807003003180130C90700300318013047
:101F0400CA07003003180130CB074B1C8A2F8B2FD4
:101F1400AA2F4808BC004908BD004A08BE004B0867
:101F2400BF000130C0003F0DBF0CBE0CBD0CBC0C8B
:101F3400C00B952F3F08CB003E08CA003D08C900DE
:101F44003C08C8000130CC070318CD0A0030CD0787
:101F54004D08803AFF0080307F02031DB32FFF300D
:101F64004C02031CB62FB72FC22F7F3083120313EA
:101F7400CB008030CA000030C9000030C800F32F05
:101F8400831203134D08803AFF0080307F02031D43
:101F9400CD2F01304C020318D02FD12FDD2F00306C
:101FA40083120313CB000030CA000030C900003094
:101FB400C800C101F32F831203134C08C700FF307C
:101FC400C805FF30C9057F30CA050030CB05471C62
:101FD400EC2FED2FEE2FCA174708BC0003103C0C62
:101FE400CB004108FF007F08CB044B08B7004A0828
:0C1FF400B6004908B5004808B400080019
:1026B6008312031389100800831203138914080078
:1026C60064008001840A0406031900340406642B9E
:1026D60083120313A1000713210888000A168A1122
:1026E60077230A168A110800831203138717C73047
:1026F60083120313A0007F2BA00B7E2B822B831249
:1027060003138713C73083120313A0008A2BA00B71
:10271600892B8D2B080083120313A400A301A62B7B
:102726002308240784000A128A11AF270A168A1181
:102736000A128A1506200A168A110130FF007F0840
:1027460083120313A30722082302031CAB2BAC2B13
:10275600932B0800831603178C18B22BB32BAD2BC3
:10276600831203132008831203178D0083120313A9
:102776002208831203178C00831603178C130C157B
:102786008B1355308D00AA308D008C148B170C11CD
:102796008C1008008312031387130713880183160E
:1027A6000313880187130713413083120313A30011
:1027B600ED30A200A20BDD2BA30BDD2BE22B383074
:1027C6000A168A116B230A168A110F300A168A1105
:1027D6006B230A168A11080083120313A401A501AC
:1027E600201CF62BF72BFD2B2208A4070318A50A9D
:1027F6002308A50701300310A20DA30DFF3E031DFC
:10280600FE2B01300310A10CA00CFF3E031D052C6E
:1028160020082104031D102C112CF32B2508A100E0
:102826002408A0000800831203130C1F1B2C1C2C69
:10283600362C1E08F000F1017008F100F001700856
:10284600E3007108E400831603131E0883120313C2
:102856006307F00064080318640AF1007008E300D7
:102866007108E4000C137408FF0073088A00720EE6
:102876008300FE0E7E0E090083120313A800A40136
:10288600A5012008A200A3012208A6002308A7008C
:10289600281C4E2C4F2C552C2608A4070318A50AD5
:1028A6002708A50701300310A60DA70DFF3E031D3F
:1028B600562C0310A80C2808031D622C632C4B2CE5
:1028C6002508A1002408A000080083120313A20112
:1028D600A301831203130915213083120313A100E8
:1028E6007530A000A00B752CA10B752C7A2C8312C9
:1028F60003130911213083120313A1007530A000C0
:10290600A00B832CA10B832C882C0130831203137C
:10291600A2070318A30A0030A3072308803AFF0082
:1029260080307F02031D992C03302202031C9C2C4D
:102936009D2C6C2C080083120313C901C71FA42CFD
:10294600A52CAC2CC609C709C60A0319C70AC901B2
:10295600C90AC51FAF2CB02CB52CC409C509C40AB9
:102966000319C50A440845040319BA2CBB2CEA2CE2
:10297600C801C80AC92C01300310C40DC50DFF3E9D
:10298600031DBF2C0130FF007F08C807C51FCC2CD4
:10299600CD2CBE2C45084702031DD32C4408460205
:1029A600031CD62CD72CDD2C4408C6024508031C74
:1029B600C703C70201300310C50CC40CFF3E031D3C
:1029C600DE2C0130C802031DE92CEA2CCD2C490867
:1029D6000319EE2CEF2CF42CC609C709C60A0319F5
:1029E600C70A4708C5004608C4000800031083123A
:1029F60003133C0D3D0DC3004308031D032D042D99
:102A06000D2D0030BD000030BC000030BB00003092
:102A1600BA00702D3A08BE003B08BF003C08C00053
:102A26003D08C1001F300310C10CC00CBF0CBE0C0A
:102A3600FF3E031D162D3E08C200BC17FF30BA0527
:102A4600FF30BB05FF30BC050030BD059630C30224
:102A5600C31F2E2D2F2D492D4308803A973E03186C
:102A6600352D362D372D042D01300310BD0CBC0C31
:102A7600BB0CBA0CFF3E031D382D0130FF007F084A
:102A8600C307031D472D482D372D602D20304302E7
:102A9600031C4E2D4F2D5B2D042D0130BE0003105F
:102AA600BA0DBB0DBC0DBD0DBE0B522D0130C302C0
:102AB6004308031D5F2D602D502D42080319642D18
:102AC600652D702DBA09BB09BC09BD09BA0A0319DF
:102AD600BB0A0319BC0A0319BD0A08000030831299
:102AE60003133405BC0000303505BD0080303605C3
:102AF600BE007F303705BF003F083E043D043C045E
:102B0600031D862D872D8F2D0030B7000030B600AF
:102B16000030B5000030B40000303805BC0000308D
:102B26003905BD0080303A05BE007F303B05BF0049
:102B36003F083E043D043C04031DA22DA32DAB2DEE
:102B46000030BB000030BA000030B9000030B800D9
:102B5600B71FAE2DAF2DD32D0030BC000030BD0009
:102B66000030BE008030BF003408BC023508031CAC
:102B7600350FBE2DBF2DBD023608031C360FC42DE2
:102B8600C52DBE023708031C370FCA2DCB2DBF0239
:102B96003F08B7003E08B6003D08B5003C08B40043
:102BA600BB1FD62DD72DFB2D0030BC000030BD003D
:102BB6000030BE008030BF003808BC023908031C54
:102BC600390FE62DE72DBD023A08031C3A0FEC2D0E
:102BD600ED2DBE023B08031C3B0FF22DF32DBF0269
:102BE6003F08BB003E08BA003D08B9003C08B800E3
:102BF6008030B7068030BB063B083702031D0D2E1A
:102C06003A083602031D0D2E39083502031D0D2E16
:102C1600380834020318102E112E132E0310142E0A
:102C260003140800C03083120313A3000030A2006F
:102C36000030A1000030A0004308A7004208A6000B
:102C46004108A5004008A4000A128A1563220A1644
:102C56008A11831203132308B7002208B60021083D
:102C6600B5002008B4004708BB004608BA0045086E
:102C7600B9004408B8000A168A1171250A168A1185
:102C8600031C462E472E522E013083120313ED00ED
:102C96000030EE0083160313B801B9018E2E83129D
:102CA60003134708B7004608B6004508B5004408B0
:102CB600B4004030A3000030A2000030A100003074
:102CC600A0004308A7004208A6004108A500400846
:102CD600A4000A128A1563220A168A1183120313A4
:102CE6002308BB002208BA002108B9002008B80052
:102CF6000A168A1171250A168A11031C832E842E40
:102D06008E2E83120313ED01EE0101308316031399
:102D1600B8000030B900831203136D086E0403195E
:102D2600952E962E9C2E0A128A11FC270A168A11B7
:102D3600A12E0A128A1502200A168A118316031377
:102D4600380839040319A82EA92EAF2E0A168A119F
:102D56005F230A168A11B42E0A168A115B230A16F5
:102D66008A11023083120313CA004530C900A93004
:102D7600C800C80BBC2EC90BBC2ECA0BBC2E080043
:102D86008B170B17831603130C1788018312031373
:102D96008801831603138701831203138701F0301A
:102DA6008316031386004130831203139F008E306F
:102DB600831603139F0089018312031389010A16E0
:102DC6008A11CD230A168A110A3083120313A20030
:102DD6001C300A168A118E230A168A110A128A11C3
:102DE6002A200A168A118312031344088316031332
:102DF600BA0083120313450883160313BB00003081
:102E0600BB1BFF30BC00BD003D0883120313A900A5
:102E1600831603133C0883120313A80083160313B7
:102E26003B0883120313A700831603133A08831281
:102E36000313A60001300A128A1512200A168A11F7
:102E460083120313290883160313A30083120313A3
:102E5600280883160313A200831203132708831678
:102E66000313A10083120313260883160313A0007D
:102E76000C300A168A116B230A168A110A128A1551
:102E8600CC200A168A11831203135108F800500841
:102E9600F7004F08F6004E08F5007808BD007708E1
:102EA600BC007608BB007508BA000A168A11F92418
:102EB6000A168A11831203133A08D5003B08D60076
:102EC6003C08D7003D08D800831603132308831255
:102ED6000313BD0083160313220883120313BC00D9
:102EE60083160313210883120313BB0083160313EF
:102EF600200883120313BA000A168A11F9240A1647
:102F06008A11831203133B085606031D8C2F3A08B9
:102F16005506031D8F2F902FD32FC32F0A168A1104
:102F260068240A168A1183160313230883120313CF
:102F3600C30083160313220883120313C2008316E9
:102F46000313210883120313C100831603132008F9
:102F560083120313C0007808C7007708C6007608F6
:102F6600C5007508C4000A168A1115260A168A11A4
:102F7600013083160313AC070318AD0A0030AD0702
:102F8600831603132D08803AFF0080307F02031D4D
:102F9600CE2F01302C02031CD12FD22F912F412F7F
:102FA60083160313230883120313C3008316031324
:102FB600220883120313C200831603132108831207
:102FC6000313C10083160313200883120313C000E2
:102FD6007808C7007708C6007608C5007508C400DB
:102FE6000A168A1115260A168A1183160313AC01CE
:0A2FF600AD01412F0A128A110E28C6
:08400000FF3FFF3FFF3FFF3FC0
:02400E00FA3F77
:00000001FF
